:020000040800F2
:1000000038050020D5000008D51D00088516000819
:1000100000000000000000000000000000000000E0
:10002000000000000000000000000000ED1E0008BD
:100030000000000000000000491E0008A92300087D
:10004000E7000008E7000008E7000008E7000008F4
:10005000E7000008E7000008E7000008F9100008C2
:10006000E7000008E7000008E7000008E7000008D4
:10007000E7000008E9250008E7000008E70000089D
:1000800039290008E7000008000000009924000852
:10009000E7000008A5250008E7000008E7000008C1
:1000A000E7000008E7000008E7000008CD2E000880
:1000B000E700000800000000E70000080000000062
:1000C0000348854600F07AFB00480047C535000824
:1000D000380500200448804704480047FEE7FEE753
:1000E000FEE7FEE7FEE7FEE7AD230008C1000008DB
:1000F00030B50B46014600202022012409E00D46C0
:10010000D5409D4205D31D469540491B2546954047
:1001100040191546521E002DF1DC30BD70B500248B
:100120002546002801DA01244042002901DA012590
:100130004942FFF7DDFFAC4200D04042002C00D026
:10014000494270BDF8B502464A40D40F42004B0008
:1001500052085B089A4202D20246084611464A00FB
:1001600023D0C30D4A00DDB2120EAD1A202D35DAB0
:1001700049020126490AF6058A19002C00D052428C
:1001800020214F1B1146B9402A411018C20D9A4236
:1001900021D0002C17D0012D08DCDA05801AD20FEF
:1001A0008019D207DBB200F071FAF8BDDA05801AC7
:1001B000012340001B06C01880185A428018CA0F3D
:1001C0001043490007E04908C2071143DA05801AC5
:1001D00080194008801800F051FAF8BD6100012232
:1001E000511A001BF7E70122D2075140AAE701226A
:1001F000D2075040A6E7024670B54A40D30FDB074E
:1002000040002DD04A002AD0010E140E0002120226
:100210000919400A520A8418E50104465443000AA9
:10022000120A2E045043A4194219200CC543AA18DF
:10023000120C0125AD03521C521912047F392404FB
:1002400000D0521C104301D44000491EC2B20C061B
:10025000C0092018401C4008802A02D003E000207A
:1002600070BD40084000002900DA0020184370BD2E
:1002700070B502464A40D50F40004A00ED074008DD
:100280005208002814D0002A12D0C40DD30D410208
:100290000120C0055202490A520AE41A091812182C
:1002A0007D34914201D3641C00E04900002C01DA46
:1002B000002070BD0023914201D3891A03434008F6
:1002C00049000028F7D100290AD0914202D101212A
:1002D000C90705E0914201D2012101E00121C94392
:1002E000E005C018401900F0C9F970BDF0B5074627
:1002F0000846584087B0C00F049048000E46590089
:1003000040084908BC1A884105D2384631461E4685
:1003100017460B4602465800400810434CD0300D9B
:10032000039040055900400D490D0590401A029078
:10033000402872DA18030121000B090508430190D7
:1003400004980092002805D001995242002088416B
:1003500000920190029840210A1A0199009800F039
:1003600059F905460C466B4607CB00F074F9C019E5
:100370007141039A0E0D0023D71756401A467A4052
:10038000164344D0049A002A2DD0029A012A039AD7
:1003900015DC1205C01A914101263605001C714179
:1003A000D20F059ED2070093019202962A46234659
:1003B00000F0B2F907B0F0BD38463146FAE716054D
:1003C000224A0F46B218C01AB74101210905001C84
:1003D0004F4100187F41114618187941E20F104330
:1003E0006D19644113E0E2076D0815436408C20704
:1003F0001443039A01261205C01A91413605001CC8
:100400007141CE07400830434908C01851412A467F
:10041000234600F074F9CDE7FFE70498012240007D
:10042000C117121A00238B4104983146C417381A99
:10043000A141EEE730B40124E407634030BC55E746
:1004400030B40124E407614030BC4FE70000E0FF16
:10045000F0B51FB488B00B99099800244840099959
:10046000C00F490049080991C0070B990090490045
:1004700049080B9109990898A64608431CD00B9986
:100480000A98084318D0099801244000420D4800FA
:10049000410D099824050003000B204309900B9897
:1004A0000003000B20430B9050181C4940180022F9
:1004B00001901446104605E0002001460DB0F0BD45
:1004C000032801DA034600E003239C46C11A0AAE62
:1004D0000AE05F0008ADED5B4F00F75B7D4300274E
:1004E000AA187C41491C5B1E6145F2DD410004AB4A
:1004F0005A522104120C0A43240C401C0828DFDB4A
:10050000019802900099704601910090059B049A11
:100510000799069800F000F9D0E700000DFCFFFFF6
:10052000C217C10F504010B54018CA0796230021CA
:1005300000F0ACF810BD10B500229623114600F073
:10054000A5F810BD0EB505490291002100910A469B
:100550000B46019100F0E0F803B000BD3304000049
:10056000410040020122400AD205090E80187F296D
:1005700001DA00207047962903DC9622511AC84000
:1005800070479639884070474A0009030123090BD8
:100590001B051943094B10B5520D9A4201DA002090
:1005A00010BD064B34339A4203DC9A1A00F042F82D
:1005B00010BD03495118884010BD0000FF03000022
:1005C000CDFBFFFF10B5002904DB0124E407404206
:1005D0008C412146002B04DB1C460123DB075242E1
:1005E000A3418B4200D1824210BD00000122D207FC
:1005F000002800DB101A002900DB511A81427047E5
:100600000122D207002800DB101A002900DB511A52
:100610008842704710B5202A04DB0146203A9140F9
:10062000002010BD914020239C1A0346E34019434B
:10063000904010BD10B5202A04DB0846203AD04077
:10064000002110BD0B46D340D0402024A21A914077
:100650000843194610BD10B5202A06DBCB17084603
:10066000203A1041C1170B4306E00B461341D0401E
:100670002024A21A91400843194610BD002904DA2B
:10068000401C490001D140084000704770B400246C
:10069000050C05D11024000402D1002921D0112419
:1006A000050E01D100020834050F01D10001241DFF
:1006B000850F01D18000A41C002801DB4000641CD0
:1006C000002908D020252E1B0D46F540A14000D062
:1006D00001212943084301061B1B000ADB1D02D52B
:1006E000002070BC7047DB05181880180029F8DA64
:1006F000401C4900F5D170BC40084000704710B55F
:10070000002B08DA0024401C614192185B411A4317
:1007100001D14008400010BDF0B51FB482B00546BD
:100720000C0003D0084602F0B5FE02E002F0B2FE73
:1007300020300246009021462846FFF76BFF049BBD
:10074000059A04460F4618431143084314D018462F
:1007500010431BD0009840210A1A18460599FFF74C
:1007600069FF05460E46009A05990498FFF752FF67
:10077000084305D0012004E02046394607B0F0BD0B
:100780000020C11705430E432C43374300990E98B0
:100790006305401A7905E40A00220C43FD0A0A3079
:1007A00002D500200146E9E70105101969410C9CBA
:1007B0000D9D00196941FFF7A2FFDFE7064C0125F7
:1007C000064E05E0E36807CC2B430C3C98471034F9
:1007D000B442F7D3FFF778FC24360008443600080B
:1007E00010B50B460021846A1C43846200BF0C468E
:1007F00014432146416110BD01617047002904D0B6
:10080000826801231A43826003E0826802231A434C
:100810008260704700B593B001213A4801F016FBA1
:100820000121480201F042FB0121C9073648FFF7C8
:10083000E3FF364800F0C4FB334800F081F80F2096
:100840001190032110A801720021C17211A9092081
:10085000C00600F029FE2C48403006902C48079036
:10086000002008900420099000200A9080200B901E
:1008700040000C9080000D9020200E9000020F9000
:100880000020109006A9214800F006FC01211F4815
:1008900000F088FB684600F0C2F8002000900021BC
:1008A0006846017100200390012080020290002020
:1008B000049005906946144800F088F80121124818
:1008C00000F09AF801220F210F48FFF789FF0E4828
:1008D00000F046F801210C48FFF790FF00BF0D49DA
:1008E000094800F05BF80028F9D00221064800F022
:1008F0001FF80121044800F00FF8034800F08AF8BF
:1009000013B000BD010002000024014008000240B5
:100910008000002001000001002904D0C2680123EA
:100920001A43C26003E0C26852085200C2607047B6
:10093000C26802239A43C260C2680A43C260704719
:1009400010B504460548844207D10121401501F045
:10095000BDFA0021601501F0B9FA10BD0024014074
:1009600030B501460020002200238C680125ED07E8
:100970002C438C6000BF8C68E30FDB07521C0F24F4
:100980002403A24201D0002BF5D18C68E40FE407C8
:10099000002C01D1086C00E0002030BD30B50246CB
:1009A00000200023012424060C40002C05D094686C
:1009B00001252D06AC43234600E013681C460C407D
:1009C000002C01D0012000E0002030BD10B5002235
:1009D000C268084B1A400C7964030B6823438C6887
:1009E0002343CC6823430C6923434C6923431A43B4
:1009F000C26010BD03D2FFFF002905D0C2680123E9
:100A00001B031A43C26004E0C26801231B039A431C
:100A1000C2607047816804221143816070470021E1
:100A2000016001718160C160016141617047000036
:100A300010B58048007800287ED17F4800780028D3
:100A4000FAD17E48007807285FD007DC030002F067
:100A500038FD071420EE2C384450EE00282836D0FC
:100A600006DC0A280FD0142819D01E287ED122E0D7
:100A7000322838D03C28F9D141E000F04FFA0A2062
:100A80006E490870D4E002F077FA01206B490870D3
:100A9000CEE000F043FA142068490870C8E002F084
:100AA000B5FC032065490870C2E000F037FA1E204B
:100AB00062490870BCE002F06DFC04205F490870D8
:100AC000B6E000F02BFA28205C490870B0E002F094
:100AD0001DFC052059490870AAE000F01FFA3220D9
:100AE00056490870A4E002F0D5FB0620534908706F
:100AF0009EE000F013FA3C205049087098E002F0A4
:100B000077FA07204D49087092E000204C49C874DC
:100B10004C4800884B494988884205DC4848C07CDD
:100B2000042108434649C874464880884549C98815
:100B3000884207DC424800E07BE0C07C0221084399
:100B40003F49C8743F4800893E494989884205DCCD
:100B50003B48C07C012108433949C8743848C07CEF
:100B60003949087001203949087000E05FE000F061
:100B700075F835480078030002F0A3FC07290B172D
:100B80001123051D290001202D49C87400F070FFB4
:100B900020E002202A49C87400F06AFF1AE003200E
:100BA0002749C87400F064FF14E004202449C87485
:100BB00000F05EFF0EE005202149C87400F058FFE8
:100BC00008E006201E49C87400F052FF02E000F061
:100BD00045F800BF00BF4620184908701A48007841
:100BE000002803D01848007807281FD1184800783B
:100BF000401C1749087008460078032807DB0320CB
:100C0000087006201349087000F028F80EE0002054
:100C10000A490870074908700F49087006490870AA
:100C200003200C49087000200849087000E000BF4C
:100C300000BF10BDFA000020FB000020F8000020DB
:100C40002201002016010020F9000020FE000020F3
:100C5000FD000020ED000020FC00002010B5002069
:100C6000114948638863C863002208210E4801F0D7
:100C70008FFE002208210C4801F099FE0022042179
:100C8000094801F085FE00220421074801F08FFE8B
:100C900000221146044801F07BFE00221146024862
:100CA00001F085FE10BD0000002C01401CB50121A3
:100CB0002120400401F0CAF870200090002168460D
:100CC0000171C1710321417169460920C00600F01C
:100CD000EBFB0120C0030090002168460171012157
:100CE000C1710321417169460920C00600F0DCFB97
:100CF00002200090002168460171C17103214171F9
:100D00006946024800F0D0FB1CBD000000140048FA
:100D100010B500F03DFC002803D0012028490870E0
:100D200002E00020264908702648C07C030002F03B
:100D3000C8FB0741050F19232D37410020480078D3
:100D4000002804D100F0B4F800201F49088034E0E6
:100D50001B480078002804D000F0AAF800201A49A7
:100D600048802AE016480078002804D100F0A0F856
:100D700000201549888020E011480078002804D020
:100D800000F096F800201049C88016E00C48007862
:100D9000002804D100F08CF800200B4908810CE0F9
:100DA00007480078002804D000F082F800200649A7
:100DB000488102E000F098FF00BF00BF10BD0000B6
:100DC000A20000202201002004010020F0B585B01F
:100DD000002004902C48007805284BD100F0D8FC66
:100DE0002A4800682A490988401828490860294883
:100DF0000078401C40B2274908700846002141563F
:100E000010293EDB00202349087020480068FFF7C6
:100E100092FB06462049FFF7EEF905468321C905F6
:100E2000FFF726FA0446FFF79BFB80B204901848B0
:100E30000088164908600498FFF784FB0446174AA7
:100E4000174BFFF705FB019100901649C889FFF782
:100E500079FB0446144A154BFFF7FAFA0646019B44
:100E6000009AFFF743FA03910290FFF78DFB0D49BB
:100E7000C88106E000200B49C88104490860044984
:100E8000088005B0F0BD0000ED000020A4000020A7
:100E90008E000020A8000020132C21429A999999D5
:100EA0009999B93F22010020CDCCCCCCCCCCEC3FE1
:100EB00010B50021144801F08FFD1348406A134912
:100EC0000880084600881249088000200E494862C0
:100ED00001210D4801F080FD0C48008840100D49AB
:100EE000C8620020486201210A4801F075FD012214
:100EF0001146084801F025FE074800680421884390
:100F0000001D0549086010BD00040040B600002027
:100F1000B4000020002000401800002010B5002080
:100F20001E4948638863C86300211C4801F0D8FE4D
:100F300001220821194801F02BFD0821174801F072
:100F4000C3FE04220821154801F031FD0021134899
:100F500001F0C6FE01220421104801F019FD08210C
:100F60000E4801F0B1FE042211460C4801F01FFDAD
:100F700000210A4801F0B4FE01220021074801F0D7
:100F800007FD0821054801F09FFE042200210348C7
:100F900001F00DFD01200249087010BD002C014038
:100FA000FB000020002904D0026801231A430260DC
:100FB00003E00268014B1A4002607047FEFF000028
:100FC0000168334A11400160002101604160816085
:100FD000C1603049884208D12E49083949680F223A
:100FE00011432C4A083A516051E02A491431884291
:100FF00008D1284908394968F0221143254A083A9E
:10100000516044E023492831884209D121490839F7
:1010100049680F22120211431E4A083A516036E015
:101020001C493C31884209D11A49083949680F22C4
:1010300012031143174A083A516028E0154950310C
:10104000884209D11349083949680F221204114313
:10105000104A083A51601AE00E496431884209D1B9
:101060000C49083949680F2212051143094A083A08
:1010700051600CE007497831884208D105490839A8
:1010800049680F2212061143024A083A516070471C
:10109000FEFF00000800024010B5002202680D4B60
:1010A0001A400C6A8B6823430C6923434C69234321
:1010B0008C692343CC6923434C6A23438C6A2343C2
:1010C0001A430260CB6843600B6883604B68C3605F
:1010D00010BD00000F80FFFF002108E0002201E0AA
:1010E000531C9AB2034B9A42FADB4B1C99B28142D1
:1010F000F4DB70471108000010B50120C00300F0B8
:101100004FF8002813D00120C00300F043F81D4819
:10111000007801280BD11C480078062807D005204C
:101120001A49087006201849087000F0DDFD1020EB
:1011300000F036F8002809D1202000F031F800280E
:1011400004D1402000F02CF800281AD0102000F024
:1011500021F8202000F01EF8402000F01BF80A487B
:10116000007805280DD10A4800788007C00F0028B4
:1011700007D1074800784007C00F002801D1FFF7CA
:10118000C7FD10BDFE000020ED000020EE00002095
:101190001800002001494861704700000004014028
:1011A00001460020044A52690A40002A01D0012069
:1011B00000E00020704700000004014000212049A9
:1011C0008279002A35D00A46126803689A430B4692
:1011D0001A600A46526803689A430B465A600279BD
:1011E00051180A6803681A430A60154A926803682E
:1011F0009A43134B9A601A46D26803689A43104B7D
:10120000DA604279102A0CD11A46926803681A43B0
:101210000B4B9A601A46D26803681A43084BDA608F
:101220000DE00749427951180A6803681A430A60B9
:1012300005E0027951180A6803689A430A6070470A
:10124000000401400020044908806420034908800C
:101250000420034908707047F2000020F6000020C7
:10126000ED00002010B500200C4908800C480068F3
:10127000042188430A49086000200A49088000F0D8
:1012800003FA0520084908700121084801F0A4FB71
:101290000021064801F0DAFD10BD0000F200002038
:1012A00018000020AC000020ED00002000040040E9
:1012B0000EB50121084600F0F9FD0F21002000F0D5
:1012C00017FE0120C00301900021684601720C2125
:1012D00041720121817201A8FFF770FF07210020F0
:1012E00000F006FE70200190002168460172102176
:1012F00041720121817201A8FFF760FF0721684652
:101300000170002141700121817000F065FD0948E4
:1013100000681021884307490860084600682021BA
:101320008843044908600846006840218843014911
:1013300008600EBD0004014036480078032807D03D
:1013400034480078042803D032480078052822D198
:1013500031488088314988421ADD2F48C0897D2173
:101360000901884214DD2E480088401C2C49088061
:10137000084600887D21C90088420CDD00202849EC
:10138000088006202349087004202649087002E0DE
:101390000020234908801F480078052838D12048BC
:1013A0000088401C1E49088008464088401C488030
:1013B00008468088401C88800846C088401CC88039
:1013C00008460089401C088108464089401C488125
:1013D000084600887D21C900884213DC10484088F7
:1013E00088420FDC0E48808888420BDC0C48C0889D
:1013F000884207DC0A480089884203DC08484089A3
:10140000884205DD0620034908700420054908705C
:1014100070470000ED000020220100203075000020
:1014200004010020EE00002010B500F003F8FFF7E3
:1014300083FF10BD10B515494888FFF77CF81449A3
:10144000486148691349FFF7D1F805D31049486945
:101450001149FFF7D5F814D21048C089401C0F4934
:10146000C8810846C0897D21C90088420CDB002064
:101470000A49C88106200A490870012009490870F4
:1014800002E000200549C88110BD00008000002056
:101490002800002000001E4400604F450401002089
:1014A000ED000020EE000020F0B50A4600210023E8
:1014B000002400BF3DE001258D402B4615681D40EE
:1014C0002C469C4234D11579012D02D01579022D7C
:1014D00016D185684F000326BE40B5438560557917
:1014E0004E00B540866835438560858801268E406C
:1014F000B5438580858896798E40B6B23543858020
:1015000005684F000326BE40B543056015794E00BF
:10151000B540066835430560C5684F000326BE40E8
:10152000B543C560D5794E00B540C6683543C56042
:10153000491C1029BFD3F0BDF0B5002300244D078E
:10154000EE0E1546B5402B46CD10AE0005462035B3
:10155000AD594E07F70E0F26BE40B543CE10B6006C
:1015600007462037BD51CD10AE003D46AD591D4355
:101570002C46CD10AD003E467451F0BD0246002011
:10158000138A0B40002B01D0012000E0002070479F
:1015900010B53A48C07C01280ED110210920C006A0
:1015A000FFF7ECFF002803D001203549087061E007
:1015B0000020334908705DE03048C07C02280ED11D
:1015C00020210920C006FFF7D9FF002803D0012001
:1015D0002B4908704EE00020294908704AE027484E
:1015E000C07C03280ED140210920C006FFF7C6FFAA
:1015F000002803D00120224908703BE00020204948
:10160000087037E01D48C07C04280ED11021092045
:10161000C006FFF7B3FF002803D001201849087067
:1016200028E000201649087024E01448C07C0528F2
:101630000ED120210920C006FFF7A0FF002803D00B
:1016400001200F49087015E000200D49087011E0D5
:101650000A48C07C06280DD140210920C006FFF7AA
:101660008DFF002803D001200549087002E000200A
:10167000034908700248007810BD000022010020D4
:10168000FF00002000BFFEE700B53F48C07C03001C
:1016900001F017FF077705182B3E516477003B4890
:1016A00000682021884339490860084600684021C5
:1016B00088433649086008460068102108433349CA
:1016C00008605FE031480068102188432F490860B6
:1016D00008460068402188432C4908600846006895
:1016E00020210843294908604CE02848006810215F
:1016F000884326490860084600682021884323491A
:10170000086008460068402108432049086039E025
:101710001E480068202188431C490860084600686C
:101720004021884319490860084600681021084391
:101730001649086026E015480068102188431349BF
:101740000860084600684021884310490860084640
:101750000068202108430D49086013E00B48006829
:101760001021884309490860084600682021884301
:10177000064908600846006840210843034908609C
:1017800000E000BF00BF00BD2201002000040140B6
:1017900006480078052803D004480078042803D1BF
:1017A000034800880349088070470000ED000020CE
:1017B000800000208E00002010B5002016494863EC
:1017C000886316484089C86301220821124801F045
:1017D000DFF804220821104801F0E9F800210E4842
:1017E00001F07EFA012204210B4801F0D1F8082112
:1017F000094801F069FA04221146074801F0D7F8B8
:1018000000221146044801F0C3F8002211460248A4
:1018100001F0CDF810BD0000002C01402201002095
:1018200010B5002016494863886316484089C8638C
:1018300001220821124801F0ABF8042208211048C7
:1018400001F0B5F8002204210D4801F0A1F80022B2
:1018500004210B4801F0ABF80021094801F0D2F94E
:1018600001220021064801F093F80821044801F004
:10187000BDF904220021024801F099F810BD0000D2
:10188000002C01402201002010B51748408917495B
:10189000886300204863C86301220821134801F0CF
:1018A00077F80021114801F07FFA042208210F483F
:1018B00001F07DF808210D4801F06AFA0022114676
:1018C0000A4801F065F800221146084801F06FF857
:1018D00001220421054801F05BF804221146034867
:1018E00001F065F810BD000022010020002C01402D
:1018F00010B5002016494863C863164840898863BC
:1019000000220821124801F043F800220821104863
:1019100001F04DF8012204210D4801F039F80422AC
:1019200011460B4801F043F80021094801F06AF91B
:1019300001220021064801F02BF80821044801F09B
:1019400055F904220021024801F031F810BD0000D1
:10195000002C01402201002010B5002016498863A8
:10196000C8631648408948630021134801F01CFAF7
:1019700001220821104801F00BF808210E4801F05F
:1019800007FA042208210C4801F011F80022042172
:10199000094800F0FDFF00220421074801F007F884
:1019A00001220021044800F0F3FF04220021024834
:1019B00000F0FDFF10BD0000002C014022010020BE
:1019C00010B5002016498863C863164840894863EB
:1019D00000220821124800F0DBFF002208211048F5
:1019E00000F0E5FF00210E4801F07AF90122042100
:1019F0000B4800F0CDFF0821094801F065F90422E9
:101A00001146074800F0D3FF01220021044800F0EE
:101A1000BFFF04220021024800F0C9FF10BD0000F2
:101A2000002C01402201002010B51048C07C0300AA
:101A300001F047FD071705080B0E11141700FFF7FB
:101A4000BBFE11E0FFF7ECFE0EE0FFF751FF0BE0ED
:101A5000FFF71AFF08E0FFF77FFF05E0FFF7B0FF91
:101A600002E000F041F900BF00BF10BD22010020DC
:101A700010B564200F4948810846807C012810D1A8
:101A80000846C07C401CC8740846C07C062801DD9E
:101A90000120C8740748C07C012802DA06200549E5
:101AA000C874FFF7C1FF0020FFF716FBFFF7CAFB62
:101AB00010BD00002201002010B545480078030049
:101AC00001F0FFFC08051821223743637783414862
:101AD00000788006C00F00280BD03F48007800280F
:101AE00007D101203A490870012211463B4801F014
:101AF00028F86BE0374800788006C00F002801D036
:101B000000F072F862E061E03548807C012804D181
:101B1000FFF7AEFF0120334908702E480078800699
:101B2000C00F002804D106202949087000F0DCF815
:101B30004CE0284800788006C00F002804D1062019
:101B40002349087000F0D0F840E000F059FA21482D
:101B500000780006C00F00280BD11E4800688021C5
:101B6000884380301B490860002201211B4800F097
:101B7000E8FF184800788006C00F002804D106202E
:101B80001349087000F0B0F820E000F0ADF81248FA
:101B90000078002805D00F4800788006C00F002884
:101BA00003D00D480078002802D1072008490870AA
:101BB0000CE0084800788006C00F002804D0002000
:101BC000034908700449087000E000BF00BF10BD61
:101BD000ED00002018000020EE000020002C014045
:101BE00022010020FE00002010B500202D49C874FD
:101BF00088802D4908702D4908802D4908802D497D
:101C000008802D4908602D4908802D4908702D490C
:101C100008702D4908702D4908702D4908772D4806
:101C20000068802188432B49086000202A490880E9
:101C300048808880C8800881488100221146274852
:101C400000F0A6FE00220421244800F0A1FE00229C
:101C50000821224800F09CFE002211461F4800F097
:101C6000A6FE002204211D4800F0A1FE002208214A
:101C70001A4800F09CFE1A48006810218843184951
:101C80000860084600682021884315490860084616
:101C900000684021884312490860032011490870F8
:101CA00010BD000022010020B0000020B200002082
:101CB000B4000020B6000020B8000020740000200E
:101CC000F8000020FA000020FC000020FD000020A9
:101CD000C00000201800002004010020002C01405A
:101CE00000040140ED00002010B5002211463148EB
:101CF00000F04EFE002204212E4800F049FE002292
:101D000008212C4800F044FE00221146294800F02A
:101D10004EFE00220421274800F049FE002208213F
:101D2000244800F044FE1020FFF734FA2020FFF78B
:101D300031FA4020FFF72EFA00201E4948638863DD
:101D4000C86300211C4800F047FE00211B4800F03A
:101D500043FE0021194801F079F80021164801F0EE
:101D600075F800201649087016494881C874C88162
:101D70008880154908801548006804218843134964
:101D8000086008460068022188431049086010482E
:101D90000068102188430E49086008460068202129
:101DA00088430B4908600846006840218843084979
:101DB000086010BD002C01400020004000040040DD
:101DC000FE00002022010020AC00002018000020AE
:101DD000000401407047000000218278002A27D0CB
:101DE000184A03231B02D21803789B109B00D1587A
:101DF00002789207D30EFF229A400B46934319466E
:101E000042789207120E03789B07DB0E9A4011432B
:101E10000C4A03231B02D21803789B109B00D1505D
:101E20000278D306DB0E01229A40064B1A6007E0C7
:101E30000278D306DB0E01229A40024B80331A60EF
:101E40007047000000E100E070470000002905D065
:101E5000054A52690243044B5A6104E0024A52693E
:101E60008243014B5A61704700100240002905D09F
:101E7000054AD2690243044BDA6104E0024AD2699E
:101E80008243014BDA61704700100240002905D0FF
:101E9000054A12690243044B1A6104E0024A1269BE
:101EA0008243014B1A61704700100240002905D09F
:101EB000054A92690243044B9A6104E0024A92691E
:101EC0008243014B9A61704700100240002905D0FF
:101ED000054AD2680243044BDA6004E0024AD26841
:101EE0008243014BDA6070470010024070470000E7
:101EF00030B500228B071C0F0F23A3401A460B4B53
:101F00008C10A4001B599343084C8D10AD006351F5
:101F100023468C10A4001B598C07250F0446AC40A7
:101F20002343024C8D10AD00635130BD08000140C9
:101F30000CB50020019000902F4800680121084353
:101F40002D49086000BF2C4800680221084000901D
:101F50000198401C01900098002804D10521090334
:101F600001988842EFD124480068022108400028E7
:101F700002D00120009001E000200090009801288C
:101F800039D111201D4908601B4840681A49486032
:101F9000084640684860084640687B21C90388437A
:101FA00015494860084640680521C904084312499C
:101FB0004860084600680121090608430E49086088
:101FC00000BF0D4800680121490608400028F8D0EC
:101FD0000948406880088000074948600846406812
:101FE000022108430449486000BF034840680C21AF
:101FF00008400828F9D10CBD001002400020024022
:10200000F0B585B05E480078022833D15D4800887D
:1020100003282EDB00205B4908805B4801885B4871
:10202000FEF766F85A49088008460088FEF78AFAE3
:102030000446584A584BFEF70BFA0191009050495C
:102040008888FEF77FFA0446544A554BFEF700FA9B
:102050000646019B009AFEF749F903910290FEF7AC
:1020600093FA47498880084681884E48008801F0E5
:1020700045FA83E04348008803287FDB002041497C
:102080000880414801884148FEF732F840490880FD
:1020900008460088FEF756FA04463E4A3E4BFEF7D5
:1020A000D7F906460F4636498888FEF74BFA0446AC
:1020B0003A4A3B4BFEF7CCF932463B460191009041
:1020C000FEF714F903910290FEF75EFA2C4988801E
:1020D00008464089FF212D31884205DA2848408989
:1020E000801C2749488149E0254840892D490988B5
:1020F00088422DDC22494889FEF724FA0446002252
:10210000294BFEF75FFA05D81D484089801C1C4901
:10211000488114E01A494889FEF714FA044600225F
:10212000224BFEF74FFA05D215484089801C14490E
:10213000488104E012484089801C114948811048B8
:1021400040891B49884219DB08460D49488115E042
:102150000B4840891349098888420FDD002008494F
:10216000088208464089801E488108464089FF2130
:102170002D31884202DA08460149488105B0F0BD98
:1021800022010020AC000020B400002080841E004A
:10219000BC0000207B14AE47E17A843FAE47E17A71
:1021A00014AEEF3F7400002000708740006890403C
:1021B000DC05000010B527480088401C2549088030
:1021C000084600882449098888422FDB00202149DD
:1021D00008802248408908302049488106211E484D
:1021E0000088FDF79BFF401C1B490988081A1A4903
:1021F000088008460088082804DA08200880FFF7CD
:1022000031F810BD1548C07C401C1449C8740846FC
:10221000C07C062801DD0120C8741048C07C01285C
:1022200002DA06200D49C874FFF7FEFB0B4840890F
:10223000642803DA64200949488108E00748408996
:10224000FF212D31884202DD08460449488100BF44
:10225000D7E70000F2000020F60000202201002055
:1022600010B54F48C07C030001F02BF90795051D00
:10227000354D657D9500FFF7D3FA4A480068102177
:10228000884348490860084600684021884345491A
:10229000086008460068202108434249086002207F
:1022A0003F49C8747AE0FFF723FB3E4800682021CD
:1022B00088433C4908600846006810218843394932
:1022C000086008460068402108433649086003203A
:1022D0003349C87462E0FFF7D7FA324800684021FA
:1022E00088433049086008460068202188432D490A
:1022F000086008460068102108432A490860042045
:102300002749C8744AE0FFF727FB264800681021D8
:1023100088432449086008460068402188432149D1
:10232000086008460068202108431E49086005200F
:102330001B49C87432E0FFF743FB1A4800682021AC
:1023400088431849086008460068102188431549E9
:1023500008600846006840210843124908600620CA
:102360000F49C8741AE0FFF727FA0E4800684021A9
:1023700088430C49086008460068202188430949C1
:1023800008600846006810210843064908600120DB
:102390000349C87402E0FFF7A7FC00BF00BF10BDEF
:1023A00022010020000401407047000010B51B48C6
:1023B0000068012108431949086008464068184927
:1023C0000840164948600846006816490840134905
:1023D0000860084600680121890488430F490860A5
:1023E000084640683F21090488430C494860084674
:1023F000C06A00090001C8620846006BFF21543121
:102400008843064908630846406B4008400048631B
:1024100000208860FFF78CFD10BD00000010024016
:102420000CB8FF08FFFFF6FE1FB501210802FFF7F9
:102430001DFD184800F0F0FA2F2168468180002128
:10244000C1801320029068468181817301A91148DF
:1024500000F0FEFC01210F4800F07CFA00210D483D
:1024600000F0BAFA01210B4800F0B0FA0121094846
:1024700000F0AFFA01221146064800F062FB13217A
:10248000684601700021417001218170FFF7A4FCB2
:102490001FBD00000020004010B50121234800F0BE
:1024A0003DFB002840D0224800788007C00F00285C
:1024B0000AD01F480068022188431D490860002295
:1024C00001211A4800F03DFB194800784007C00F71
:1024D000002825D017480068102188431549086056
:1024E00008460068202188431249086008460068B1
:1024F000402188430F490860FFF7B2FE00200B49D6
:1025000048620520C8620A48006802218843801C8E
:1025100007490860084600680421884304490860A8
:102520000121024800F055FA10BD000000200040D3
:1025300018000020000401401FB501214804FFF7E6
:10254000B5FC164800F068FA2F216846818000210A
:10255000C1801348029068468181817301A90F48A8
:1025600000F076FC01210D4800F036FA01210B48FD
:1025700000F02CFA0121094800F02BFA0122114643
:10258000064800F0DEFA152168460170022141700C
:1025900001218170FFF720FC1FBD000000440140B5
:1025A000E703000010B501210C4800F0B7FA00283D
:1025B00013D000F061FDFFF77FFAFEF735FF084802
:1025C0000088401C0649088006480088401C0549D0
:1025D00008800121014800F0FCF910BD00440140D1
:1025E000AC000020AA00002010B501212C4800F00A
:1025F00095FA002852D02B480078032802D00428EE
:1026000046D142E02848807C02283DD1FEF710FAEE
:1026100026480078012803D025480078012804D1F5
:1026200024480078401C234908702048007801287D
:102630000AD121480078052806DC2048C0881E49B8
:10264000097849001E4A50521948007801280CD1D7
:10265000184800780C2817DB002016490870FEF790
:10266000FDFA0020124908700EE010480078012899
:102670000AD110480078032806DBFEF7EFFA0020A5
:102680000C4908700949087003E0FFF793FD00E06A
:1026900000BF00BF0121024800F09BF910BD0000FF
:1026A000002C0140ED00002022010020FA00002053
:1026B000FB000020AE000020FC0000208000002075
:1026C0001601002000B58FB0012103204004FFF760
:1026D000BDFB072000020190022168460172032120
:1026E0004172002181720221C17202220821092057
:1026F000C006FEF721FF02220921C806FEF71CFFD3
:1027000002220A210920C006FEF716FF01A90920AE
:10271000C006FEF7C9FE80200190022168460172C2
:1027200003214172002181720121C172022207211D
:102730000920C006FEF700FF01A90920C006FEF728
:10274000B3FE032001900221684601720321417209
:10275000002181720121C172022200215848FEF736
:10276000EBFE022201215648FEF7E6FE01A954487D
:10277000FEF79AFE0121C802FFF798FB514800F0CE
:102780004BF9002168460186202141867D210902FE
:102790004D480068FDF7ACFC401E0D9000216846D6
:1027A0000187012108A881760CA9464800F050FB5A
:1027B00001220021434800F03BFB0121414800F089
:1027C000C9F8602168468181002005900121684692
:1027D000C18104210182002101830821418300215C
:1027E000818301214902C18303A9364800F0B4F96D
:1027F0000121C90268460184491041840021818475
:102800006421C184002101854185012189038185DD
:1028100008A92C4800F0ACF80020059003A929482D
:1028200000F0FCF90020059003A9264800F064FAA6
:102830000020059003A9234800F0C2FA00221146A7
:10284000204800F0A5F8002204211E4800F0A0F85E
:10285000002208211B4800F09BF80022114619486D
:1028600000F0A5F800220421164800F0A0F800228C
:102870000821144800F09BF80121124800F0A6F846
:102880000121104800F0A5F8012211460D4800F082
:1028900058F90D21684601700221417001218170B3
:1028A000FFF79AFA0121074800F096F82021054821
:1028B00000F0C2FA0121034800F09CF80FB000BDFF
:1028C00000040048002C0140000000201FB5012139
:1028D0000220FFF7CBFA164800F09EF82F21684639
:1028E00081800021C18013480290684681818173F4
:1028F00001A90F4800F0ACFA00210D4800F06CF877
:1029000001210B4800F062F80121094800F061F84C
:1029100000220121064800F014F9102168460170D8
:102920000321417000218170FFF756FA1FBD00009E
:10293000000400405FEA000010B50121044800F0E7
:10294000EDF8002803D00121014800F042F810BD45
:1029500000040040002904D0028880231A4302802A
:1029600003E00288014B1A40028070477FFF00009D
:102970000A884B881A438B881A43CB881A430B89E1
:102980001A434B891A438B891A4344231A527047BE
:1029900030B5002301248C40A3B2048C9C430484F2
:1029A000048C15468D40ADB22C43048430BD30B547
:1029B000002304248C40A3B2048C9C430484048C24
:1029C00015468D40ADB22C43048430BDCA4302820B
:1029D0007047CA4302827047002904D0028801234D
:1029E0001A43028003E00288014B1A4002807047BC
:1029F000FEFF0000002907D04422125A0123DB0306
:102A00001A4344231A5205E04422125A53045B0C21
:102A1000442213527047000010B5044637488442E0
:102A200008D10121C014FFF751FA0021E014FFF78B
:102A30004DFA62E001208007844208D10121084656
:102A4000FFF724FA00210120FFF720FA55E02C4877
:102A5000844208D101210220FFF718FA0021022048
:102A6000FFF714FA49E02748844208D101211020D9
:102A7000FFF70CFA00211020FFF708FA3DE022488A
:102A8000844208D101212020FFF700FA00212020F4
:102A9000FFF7FCF931E01D48844208D1012180157F
:102AA000FFF7F4F90021A015FFF7F0F925E0184829
:102AB000844209D101210804FFF708FA002101200E
:102AC0000004FFF703FA18E01248844209D10121FB
:102AD0004804FFF7FBF9002101204004FFF7F6F955
:102AE0000BE00D48844208D101218804FFF7EEF97C
:102AF000002101208004FFF7E9F910BD002C0140FE
:102B0000000400400010004000140040002000407D
:102B100000400140004401400048014030B50246F9
:102B2000002000230024158A0D402B4695890D4076
:102B30002C46002B03D0002C01D0012000E0002007
:102B400030BD002A03D083890B43838102E083894F
:102B50008B4383817047000070B50024002200235E
:102B6000058C1C4E35400584028C8388048B194DDE
:102B70006F3D2C40B51E2C400D882C43751E2A40FD
:102B80008D892A434D882A43134DA84208D0134DFE
:102B9000A84205D0124DA84202D0124DA84212D12F
:102BA0000C4DED1F2A40CD892A430A4DED1E2A40C7
:102BB0008D882A43074DFF3D2B400B4D2B400D8A3E
:102BC0002B434D8A2B43838004838D6845630284A5
:102BD00070BD0000FEFF0000002C014000400140DD
:102BE0000044014000480140FFFD00000A4600216A
:102BF000018C034B19400B4613431946018470475F
:102C0000F7FF00000A460021018C034B19400B46D8
:102C10001343194601847047FDFF000070B500247E
:102C200000220023058C214E35400584028C8388C8
:102C3000048B1F4D2C401F4D2C400D782D062D0C64
:102C40002C431A4D103D2A408D892D052D0C2A4309
:102C50004D882D052D0C2A43174DA84202D0174D43
:102C6000A8421CD1164D2B400D8AAD042D0C2B43D0
:102C7000114DA84213D10D4D703D2A40CD892D052F
:102C80002D0C2A43094D303D2A408D882D052D0CF1
:102C90002A430C4D2B404D8AAD042D0C2B438380D1
:102CA00004838D688563028470BD0000EFFF00001F
:102CB000FF8F0000FFFC0000002C0140004001409D
:102CC000FFFB0000FFF700000A460021018C034BC8
:102CD000194013051B0C1943018470477FFF000046
:102CE0000A460021018C034B194013051B0C1943A4
:102CF00001847047DFFF000070B50024002200232C
:102D0000058C1C4E35400584028C8388848B194DBC
:102D100090352C40174DFD352C400D882C43164D19
:102D20002A400D7B2D062D0C2A438D782D062D0C67
:102D30002A43124DA84217D1114D2A408D7B2D06F2
:102D40002D0C2A430F4D2A400D792D062D0C2A43B8
:102D50000D4D2B400D4D2B400D8A2D052D0C2B4379
:102D60004D8A2D052D0C2B43838084838D68C5638C
:102D7000028470BDFFFE0000FFFD0000002C01403A
:102D8000FFF70000FFFB0000FFEF0000FFDF000087
:102D90000A460021018C034B194013061B0C1943F2
:102DA00001847047FFF700000A460021018C034BA5
:102DB000194013061B0C194301847047FFFD0000E6
:102DC00070B5002200230024058C134E3540058485
:102DD000038C8488828B114D2A40114D2A400D7836
:102DE0002D062D0C2A430F4D2B400D7B2D072D0C4E
:102DF0002B438D782D072D0C2B430B4DA84205D16D
:102E00000A4D2C400D8AAD052D0C2C438480828305
:102E10008D680564038470BDFFEF0000FF8F000024
:102E2000FFFC0000FFDF0000002C0140FFBF00009E
:102E300001858282704700008288034B1A4082809D
:102E400082880A43828070478FFF0000416270478A
:102E500000220288154B984206D001239B07984216
:102E600002D0134B984203D1124B1A404B881A439D
:102E7000114B984203D0114B1A400B891A43028020
:102E80004B68C3620B880385084B984208D00C4BF3
:102E9000984205D00B4B984202D00B4B984201D17F
:102EA0008B7A03860123838270470000002C014047
:102EB000000400408FFF000000100040FFFC0000F5
:102EC00000400140004401400048014010B50B495A
:102ED0000B4800F021F800280ED0094800F043F814
:102EE00004462146064800F043F800BF802104480C
:102EF00000F008F80028F9D010BD00000501050019
:102F00000038014002460020D3690B40002B01D05D
:102F1000012000E00020704770B502460B460024F7
:102F20000021002500201E04350ED9B201268E4056
:102F30003146012D02D11668314006E0022D02D142
:102F40005668314001E0966831401C0C0126A640CD
:102F50003446D6693440002903D0002C01D001202A
:102F600000E0002070BD0146888CC005C00D704790
:102F7000CA05D20D0285704710B500201849486374
:102F80001848C8638863012208211548FFF700FD2F
:102F9000042208211248FFF70AFD012204211048EB
:102FA000FFF7F6FC042211460D48FFF700FD002153
:102FB0000B48FFF727FE012200210948FFF7E8FC34
:102FC00008210748FFF712FE042200210448FFF7FA
:102FD000EEFC01200449087000200449087010BD6F
:102FE000002C0140DC050000FA000020FC0000205D
:102FF00010B500201C49486388631C48C86301223F
:1030000008211948FFF7C4FC042208211648FFF7DD
:10301000CEFC00211448FFF7F5FD012204211248DF
:10302000FFF7B6FC08211048FFF7E0FD0422114627
:103030000D48FFF7BCFC00210B48FFF7E3FD012220
:1030400000210948FFF7A4FC08210748FFF7CEFD3F
:10305000042200210448FFF7AAFC0120044908705B
:1030600005200449087010BD002C0140DC0500005B
:10307000FA000020FC000020F0B585B0744800780C
:10308000022879D1734880887349088008460088EF
:10309000FF212D31884215DA70480078401C6F49B5
:1030A000087000206E4908706C48007814281FDBF7
:1030B00000206A4908706B480068202188436949EC
:1030C000086015E066480078401C654908700020DB
:1030D0006249087062480078142809DB00206049C2
:1030E0000870604800682021884320305D490860EE
:1030F0005C4800788006C00F002839D05648008808
:1031000081004018584940185849088008460088EE
:10311000FDF718FA0446564A564BFDF799F9019106
:10312000009055480088FDF70DFA0446534A544B69
:10313000FDF78EF90646019B009AFDF7D7F803913B
:103140000290FDF721FA4C4908800846008846495C
:10315000884203DA08464849088077E046480088F4
:103160004849884272DD0846434908806EE003E022
:1031700000204149088069E035480078012865D180
:10318000344880883449088008460088FF212D3162
:10319000884215DA31480078401C30490870002018
:1031A0002F4908702D48007814281FDB00202B4978
:1031B00008702C480068202188432A49086015E0DF
:1031C00027480078401C26490870002023490870D1
:1031D00023480078142809DB002021490870214881
:1031E00000682021884320301E4908601D4800786F
:1031F0008006C00F002826D017480088FDF7A2F9E6
:1032000006460022204BFDF723F900221F4B0391B5
:103210000290FDF76BF80446FDF7B6F916490880F1
:1032200008460088FF212D31884203DA08461249FA
:1032300008800BE0104800881549884206DD0846E2
:103240000D49088002E000200B49088005B0F0BD60
:103250002201002080000020F40000200001002056
:10326000010100201800002070170000020100205A
:10327000B81E85EB51B8AE3F7400002014AE47E194
:103280007A14EE3F684200000000E03F00C0724048
:10329000DC05000010B500201849C86318484863D1
:1032A0008863012204211548FFF772FB04221146AE
:1032B0001248FFF77CFB012200211048FFF768FB52
:1032C000042200210D48FFF772FB00210B48FFF795
:1032D00099FC012208210948FFF75AFB08210748F9
:1032E000FFF784FC042208210448FFF760FB01205B
:1032F0000449087004200449087010BD002C0140E6
:10330000DC050000FA000020FC00002010B50020C1
:103310001C494863C8631C4888630122042119487A
:10332000FFF736FB042211461648FFF740FB002149
:103330001448FFF767FC012200211248FFF728FB21
:1033400008211048FFF752FC042200210D48FFF726
:103350002EFB00210B48FFF755FC012208210948EC
:10336000FFF716FB08210748FFF740FC042208215D
:103370000448FFF71CFB012004490870032004499E
:10338000087010BD002C0140DC050000FA00002090
:10339000FC00002010B500201849886318484863D5
:1033A000C863012200211548FFF7F2FA0422002128
:1033B0001248FFF7FCFA012208211048FFF7E8FA4B
:1033C000042208210D48FFF7F2FA00210B48FFF70D
:1033D00019FC012204210948FFF7DAFA08210748FD
:1033E000FFF704FC042211460448FFF7E0FA01202D
:1033F0000449087002200449087010BD002C0140E7
:10340000DC050000FA000020FC00002010B50020C0
:103410001C49C86388631C4848630122002119487D
:10342000FFF7B6FA042200211648FFF7C0FA002180
:103430001448FFF7E7FB012208211248FFF7A8FA1A
:1034400008211048FFF7D2FB042208210D48FFF79E
:10345000AEFA00210B48FFF7D5FB012204210948F1
:10346000FFF796FA08210748FFF7C0FB0422114630
:103470000448FFF79CFA01200449087004490870C9
:1034800010BD0000002C0140DC050000FA00002007
:10349000FC0000202021020C01D010211046020A5D
:1034A00001D010460839020901D01046091F8208D0
:1034B00001D01046891E420801D0881E7047081AA4
:1034C000704730B47446641E2578641CAB4204D344
:1034D000635D5B00E31830BC18471D46F8E702E067
:1034E00008C8121F08C1002AFAD17047704700208F
:1034F00001E001C1121F002AFBD17047F8B5044654
:103500000D462C48007F002803D12A49086101207C
:103510000877601BFDF704F8264948610A4651699F
:103520001069FCF70FFE234908610A4611695068CB
:10353000FCF761FE1F4948620A4651691068FCF7B2
:103540005AFE07461B48416A3846FCF7FBFD064613
:1035500019493046FCF74FFE07461849FCF788FE2C
:1035600014498861088DFCF7E6FF07461148816918
:103570003846FDF73BF805D80E49088DFCF7DBFF10
:103580000C4988610B49488DFCF7D5FF074609486F
:1035900081693846FDF734F805D20649488DFCF7B5
:1035A000CAFF0449886103498869FCF7D9FF0449C7
:1035B0004881F8BDC0000020000070410000484371
:1035C0002201002001201449087002208874FDF7B0
:1035D0006DFBFDF76DFE1420FDF77EFDFDF71AF97A
:1035E0001420FDF779FDFFF76DF8FFF76FF9FEF78F
:1035F0001BFFFEF7A1FF1420FDF76EFD0620074913
:10360000087008E0064800880A2804DB0020044906
:103610000880FDF7DBFBF5E722010020ED0000202C
:10362000AA00002044360008000000200401000029
:10363000DE3400084837000804010020340400008C
:10364000EE340008006CDC02000000000000000006
:103650000102030406070809000000000000000042
:10366000000000000000000000000000000000005A
:10367000000000000000000000000000000000004A
:10368000000000000000000000000000E803180037
:10369000000000000000000000000000000000002A
:1036A000000000000000000000000000000000001A
:1036B000000000000000000000000000000000000A
:1036C00000000000000000000000000000010000F9
:1036D00000000000000000000000000000000000EA
:1036E00000000300D0070000000000000000000000
:1036F00000000000000000000000000000000000CA
:1037000000000000CDCC4C3E0AD7233C0000000056
:10371000DC052C010000000000000000000000009B
:10372000000000000000000000000000DC052C018B
:103730000000000000000000000000000000000089
:08374000000000000000000081
:04000005080000C12E
:00000001FF
